:020000040000FA
:06000000FCEF0FF01200FE
:020006001200E6
:06000800C1EF07F0120039
:02000E000100EF
:0C0010009A200000A60000001400000070
:04001C004AEC05F0B5
:10002000FB0EDBCFF3FFDB06F35000090AE098EC90
:1000300005F0FA0E03EC06F0F3E1151CF1E1010EF8
:1000400001D0000E79EF05F04AEC05F03B0EE124FB
:1000500002E3E168E652E16E010EDB6A020EDB6A42
:10006000F90EDBCFF6FFFA0EDBCFF7FFFB0EDBCF8F
:10007000F8FF0800F550DF6EDF5002E19DEF04F05D
:10008000250EDF5C02E090EF04F0030EDB6A040E45
:10009000DB6A050EDB6A060EDB6A070EDB6AB2EC72
:1000A00004F02D0EDF5C0CE02B0EDF5C09E0200E6F
:1000B000DF5C06E0230EDF5C03E0300EDF5C1AE15C
:1000C000DF50300A14E0130A0FE0030A0AE00B0ABB
:1000D00005E0060AE4E1030EDB80E1D7030EDB82D4
:1000E000DED7030EDB84DBD7030EDB86D8D7030E07
:1000F000DB88D5D72A0EDF5C1BE1AEEC04F0FCEC0C
:1001000004F010E0030EDB8008680968130EDBCFF3
:100110000DF0140EDBCF0EF0C2EC0AF0040E06C098
:10012000DBFF03D0130EE5EC04F0B2EC04F00BD0CF
:10013000090EDB6A53EC05F003E0C7EC05F0FAD7D3
:10014000090EE5EC04F0030EDBB0DB982E0EDF5C4D
:100150001BE1B2EC04F02A0EDF5C0BE1AEEC04F024
:10016000FCEC04F003E1130E37EC05F0B2EC04F004
:100170000BD0090EDB6A53EC05F003E0C7EC05F089
:10018000FAD7090E37EC05F0680EDF5C07E1B2EC38
:1001900004F0680EDF5C1DE1030E18D0740EDF5C06
:1001A00017E07A0EDF5C14E0480EDF5C06E0540EC8
:1001B000DF5C03E05A0EDF5C02E1020E07D06C0E3A
:1001C000DF5C03E06A0EDF5C04E1010E8AEC05F0FF
:1001D000C9DBDF506E0A01E17FD31E0A01E192D133
:1001E000200A01E18FD13F0A01E149D11A0A01E158
:1001F00046D10D0A01E143D1200A01E140D13A0A7A
:1002000001E13DD1200A01E13AD1260A01E135D1CF
:100210000D0A01E132D11A0A01E1D9D0200A4AE0DF
:10022000300A1FE0460A0EE0250A01E083D3D950C8
:10023000F90FE96EFF0EDA20EA6E010EEE5E000E97
:10024000EE5AEE5A98EC05F0250EE66E95DB03E1CA
:10025000151C01E169D394EC05F001E26BD3DB2AB4
:1002600069D3080EDB6A040EDB50010806E2040EB7
:10027000DB045CEC05F0DB508BDB080EDB5009E0A7
:10028000030EDB50010B05E172DB01E04DD3080EDC
:10029000DB6A64DBEFCFDFFF0CEC06F003E1151C3B
:1002A00001E142D394EC05F001E3DB2A60DB01E1DC
:1002B00041D33AD3070EDB5002080FE1D8EC05F02A
:1002C000030E9FEC05F00E0EEECFDBFF0F0EEECF10
:1002D000DBFF100EEECFDBFF20D0F70EDBCF17F0E9
:1002E000F80EDBCF18F0020E175E000E185AF70E4C
:1002F00017C0DBFFF80E18C0DBFF17C0E9FF18C0FE
:10030000EAFF8FEC05F0166A0E0E14C0DBFF0F0E2D
:1003100015C0DBFF100E16C0DBFF0E0EDBCFE6FFB5
:100320000F0EDBCFE6FF100EDBCFE6FF6EEC0DF01D
:10033000E552E552E552130E07C0DBFF140E08C06C
:10034000DBFF060EDB5005E0130ED3EC05F001E2F7
:100350006ADBF7EC05F002E2130E37DBBAEC05F0CE
:1003600006E0040ED3EC05F002E2050E2EDB030ED0
:10037000DBB005D0FCDA01E0D7D2080EDB6A090E4B
:10038000DB6A0E0EDBCFF6FF0F0EDBCFF7FF100E92
:10039000DBCFF8FF0800F550DF6EDF5014E0FDEC16
:1003A00005F011E20CEC06F003E1151C01E1BCD2F2
:1003B000BBDB01E3DB2A090EDB2AD9500E0FE96E05
:1003C000000ECBDBE7D7D3DA01E1B4D2ADD2C6DA87
:1003D000110EEECFDBFF120EEDCFDBFF110EDBCFE8
:1003E000E6FF120EDBCFE6FF60EC0DF0E552E552C2
:1003F000130EF3CFDBFF140EF4CFDBFF060EDB5042
:1004000004E0130ED0DB01E20EDBF7EC05F002E2B4
:10041000130EDBDAAFDB05E0040EC5DB02E2050EEE
:10042000D4DA030EDBB005D0A2DA01E07DD2080EEB
:10043000DB6A090EDB6A110EDBCFE9FF120EDBCFA0
:10044000EAFFEFCFDFFFDF5014E0D7DB12E2E4DB9F
:1004500003E1151C01E168D267DB01E3DB2A090E29
:10046000DB2A110EDB2ADBCFE9FF120EE8E3DB2AE1
:10047000E6D77DDA01E15ED257D2030EDB8E070E9E
:10048000DB0410E195DB040E5ADB0A0EEECFDBFF36
:100490000B0EEECFDBFF0C0EEECFDBFF0D0EEECF23
:1004A000DBFF6CD0070EDB5003082CE1030EDBAE44
:1004B0000DD0B2DA020E76DAEFCF14F0156A166AB2
:1004C000176A14AE39D01568166835D0F70EDBCF31
:1004D00015F0F80EDBCF16F0020E155E000E165A60
:1004E000F70E15C0DBFFF80E16C0DBFF15C0E9FFE5
:1004F00016C0EAFFEFCF14F00A0E14C0DBFF0B0E9C
:10050000DB6A38D0070EDB50020809E1030EDBAED0
:1005100004D059DB16AE10D00ED055DB0DD0030E33
:10052000DBAE12D079DA020E3DDAF9DA166A176A12
:1005300015AE02D016681768E2DA0C0E16C0DBFFA3
:100540000D0E17C0DBFF1AD0F70EDBCF16F0F80E3A
:10055000DBCF17F0020E165E000E175AF70E16C00C
:10056000DBFFF80E17C0DBFF16C0E9FF17C0EAFF7C
:10057000D6DAC5DA0C0EDB6A0D0EDB6A060EDB502E
:1005800005E1010EF36E050EF3CFDBFF150EDB6AFE
:10059000160EDB6AD950370F146E000EDA20156E76
:1005A000390E14C0DBFF3A0E15C0DBFF380EDB6AD4
:1005B000080EDB6A0A0EAEDADF50780A12E0200A73
:1005C00010E0280A0CE0200A0AE03F0A06E00D0AC3
:1005D00002E0200A08E1020E05D0080E03D0080E42
:1005E000DF26100E97DA030EDBBE02D0DB92DB941F
:1005F000DB50800B24E08ADAD890030EEB50000A1F
:1006000008E6000EEE5C000EEE58000EEE58000EEE
:10061000EE5815E213DA0B680C680D680E68F2EC00
:100620000CF00A0E02C0DBFF0B0E03C0DBFF0C0E4A
:1006300004C0DBFF0D0E05C0DBFF2D0E08D0030E3E
:10064000DBA202D02B0E03D0DBA408D0200EF36E69
:10065000170EF3CFDBFF150EDB2A02D0170EDB6A75
:10066000050EDB5003E1B7D901E189D0760E146E97
:10067000200E156E000E166E070EDBCF17F0186AEF
:10068000196A1A6A17C00BF018C00CF019C00DF0E7
:100690001AC00EF0D3D9D1EC0EF014500224F36E30
:1006A00015500320F46E16500420F86EF4CFF7FFB7
:1006B000F3CFF6FF0800090EF5CFDBFF580EDF5C25
:1006C0000FE1610EF36E090E7BD90AE3200E146E62
:1006D000090EDBCFE7FF1450E75E090EE7CFDBFF23
:1006E000070EDBCF14F0156A166A176A0FDA14C00A
:1006F0000BF015C00CF016C00DF017C00EF0EECFC9
:1007000006F0EECF07F0EECF08F0EFCF09F0D1EC16
:100710000EF009C0EDFF08C0EDFF07C0EDFF06C0F9
:10072000EFFF390EDBCFE9FFDB063A0EDBCFEAFF46
:1007300001E2DB06090EDBCFEFFF150EDB2A4BD9FA
:1007400095E1030EDBA61DD06F0EDF5C06E1C1D97B
:1007500018E3150EDB285BDA14D0780EDF5C09E0B5
:10076000580EDF5C06E0620EDF5C03E0420EDF5CE9
:1007700008E1020EF36E160EF3CFDBFF02D0150E6A
:10078000DB6A030EDB50100B0EE0040EDBCF14F01F
:10079000050EDB50D880145406E2060EDB5003E150
:1007A000040EDB5034DA95D90AE2050EDBCFE7FF01
:1007B000150EDB50E75E050EE7CFDBFF02D0050E1E
:1007C000DB6A040EDBCF14F0160E45D9D880145422
:1007D00014E2160EDBCFE6FF150EDBCFE6FF040EAC
:1007E000DBCFE6FF050EDB50E552E75CE552D88033
:1007F000E754E552D880E7545FD9030EDB50010B74
:100800000BE1080EDB5008E0B2D801E08DD0080EF5
:10081000DB50BED8080EDB6A170EDB5007E088D924
:10082000170EF1D903E1151C01E17ED0160EDB5045
:1008300016E07ED9300EE66E9FD802E1151C74E0FA
:1008400077D9DFCFE6FFB0EC0CF0E552E552E55288
:10085000F4CF15F00001F31C02E1151C65E0050E54
:10086000DBCF14F0160EDB50D880145409E2050ECD
:10087000DBCFE7FF160EDB50E75E050EE7CFDBFFB1
:10088000300EE66E050ECBD94FE1390EDB2ADBCFF9
:10089000E9FF3A0E01E3DB2ADBCFEAFF090EEFCFD7
:1008A000DBFFDB500EE044D9090EADD902E1151C87
:1008B0003BE0390EDB2ADBCFE9FF3A0EEDE3DB2A22
:1008C000EBD755D831E1160EDBCFE6FF080EC3D8C3
:1008D000E552E7245DD82ED0070EDB50030A1CE05A
:1008E000010A14E0030A07E07BD9DBCFEEFF020E1A
:1008F000DBCFEDFF1FD0F5D8196A17AE02D018680C
:1009000019682CD8BCD819C0EEFF14D0EAD817BE8D
:10091000186824D8B4D80ED063D9DBCFEFFF0AD043
:100920007BD905E1151C03E1F368F46810D0FCD80D
:1009300001E3DB2A79D939EF00F0010EDBCF14F0A7
:10094000020EDBCF15F014C0F3FF15C0F4FF3B0E11
:10095000E15C02E2E16AE552E16ECBD029D9020EF8
:100960009FEF05F061D90800F550DF6E1200200EF0
:10097000E66E080E0FEF06F0B0EC0CF0E552E55213
:10098000E552F3CF14F0F4CF15F00001F31C120080
:10099000146E156AD950010F4DD91450EE2615501A
:1009A000ED221200185E000E195AF70E18C0DBFF78
:1009B000F80E19C0DBFF18C0E9FF19C0EAFF1200EA
:1009C000DBCFF4FFF350F45C1200DB50E76E040E53
:1009D000E7CFDBFF12000A0EDBCF14F00B0EDBCFEC
:1009E00015F00C0EDBCF16F00D0EDBCF17F0145008
:1009F0001510161017101200130EEECFDBFF140E99
:100A0000EDCFDBFF130EDBCF14F0140EDBCF15F0B0
:100A10000001800E15141200F70EDBCF18F0F80E4F
:100A2000DBCF19F01200050EDB50E66ED950130F24
:100A300001D9E552E750EE6EED6A12000A0EDBCFE7
:100A400006F00B0EDBCF07F00C0EDBCF08F00D0E1F
:100A5000DBCF09F01200DBCFE6FF150EDBCFE6FFA0
:100A6000050EDB50E552E724E552E7241200DB5087
:100A7000CED8010EF36E060EF3CFDBFF1200EE5060
:100A8000EFCFEAFFE96E16C0EEFF17C0EEFF18C009
:100A9000EEFF1200D9CFE6FFDACFE6FFE1CFD9FFB4
:100AA000E2CFDAFF1200DFCFE6FFE66AB8EC0FF024
:100AB000E552E552F3501200E76E080EE7CFDBFF78
:100AC0001200EECF14F0EECF15F0EFCF16F0176A4C
:100AD0001200050EDBCF14F0150EDB50D880145435
:100AE0001200010EDBCF16F0020EDBCF17F0186AF2
:100AF0001200E552E5CFDAFFE7CFD9FF12000A0E68
:100B000014C0DBFF0B0E15C0DBFF1200D9500A0F1B
:100B10001AEF06F0F36E070EF3CFDBFF1200EECFF5
:100B200014F0EFCF15F01200010EDB2A020E1200B6
:100B3000FC0EDBCFE6FFFD0EDBCFE6FF1200145EFE
:100B4000000E155AF70E14C0DBFFF80E15C0DBFFC0
:100B500014C0E9FF15C0EAFF1200DA20EA6EEF2A9E
:100B6000EECFF6FF000EEF22EECFF7FFEF22EECF33
:100B7000F8FF1200040EDBCFE6FF130EDB50E55248
:100B8000E75C9ADFDB5004DF060EDB501200090E33
:100B9000DB500A0DF350DF24D00FE76E090EE7CFCC
:100BA000DBFFB2EF04F0DB50F36E050EE0EF04F074
:100BB000F70EDBCF14F0F80EDBCF15F01200DFCF0D
:100BC000E6FFBCEF04F028DF030EECDE61EF05F07A
:100BD0000EEC00F0E552E552E552E5520009120034
:100BE000BDDEEE50EFCFEAFFE96E010E1200130EEC
:100BF000DB50F36E040EE0EF04F0040EDB50F36EF6
:100C0000090EE0EF04F0DBCFE6FFBCEF04F0E76E87
:100C1000050EE7CFDBFF12008BDFDFEF05F0DBCF48
:100C2000E6FF86DFE8EF05F0D950F90FE96EFF0E19
:0E0C3000ADEF05F0E96E000EDA20EA6E12005C
:020C3E00D9CF0C
:100C4000E6FFE1CFD9FF020EE126DE6ADD6A938A74
:100C50008A9A939A300EE66E25EC10F0E552938A4C
:100C6000180EE66E25EC10F0E5528150200B200A9C
:100C700001E0010E146E156A14BE156814C0DEFF83
:100C800015C0DDFFDF50146E020EE15C02E2E16A86
:100C9000E552E16E1450E552E7CFD9FF1200D9CFEB
:100CA000E6FFE1CFD9FFE652DF6ADFCF14F0080E8E
:100CB000E76E1418E8AE02D0E73402D0E750145CB7
:100CC00022E28A9A939A010EE66E25EC10F0E55224
:100CD000FE0EDB50010BE8B0938AE8A0939A050E54
:100CE000E66E25EC10F0E552938A020EE66E25ECD6
:100CF00010F0E552FE0EDB407F0BE76EFE0EE7CFF5
:100D0000DBFFDF2AD2D7E552E552E7CFD9FF120049
:100D1000D9CFE6FFE1CFD9FF020EE126DF6A010E4F
:100D2000DB6A010EDBCF14F0080EE76E1418E8AE94
:100D300002D0E73402D0E750145C24E28A9A939AF6
:100D400000000000938A0000000000000000000086
:100D50000000000000008150200B01E0010EF36E46
:100D6000010EDB5004E0D890F336E806FCE1F350C6
:100D7000DF10DF6E050EE66E25EC10F0E552010E79
:100D8000DB2ACFD7DF5000D0146E020EE15C02E206
:100D9000E16AE552E16E1450E552E7CFD9FF120047
:100DA00094941E0EE66EE66A93EC0DF0E552E55261
:100DB000060EE66EA3EC0FF0E55212000001806B08
:100DC000816B030E81AF02D0D89003D0805D000EFE
:100DD00081591FE2A60E8025E96E000E8121EA6E80
:100DE000EF50E66ECAEC0FF0E552280EE66E8CEC82
:100DF0000FF0E552010EE66ECAEC0FF0E552280E38
:100E0000E66E8CEC0FF0E5520001802B000E812382
:100E1000D8D7280EE66E8CEC0FF0E55212000000D9
:100E20000000000000000000000000000000010EB3
:100E3000E66E25EC10F0E5521200050EE66EDCECD5
:100E40000FF0E55212000F0EE66EDCEC0FF0E552EB
:100E50001200836A956A280EE66EA4EC0BF0E55248
:100E600071EC0FF00009FCE1E66AEBEC0DF0E552E5
:100E7000060EE66E86EC0EF0E55271EC0FF00009FE
:100E8000FCE10F0EE66E86EC0EF0E55271EC0FF011
:100E90000009FCE11200960EE66E55EC0FF0E552EB
:100EA0001200D9CFE6FFE1CFD9FF500EE126FD0EAB
:100EB000DBCFE6FFFE0EDBCFE6FFC50E146E1B0E8A
:100EC000156E166A14C0E6FFE66E16C0E6FFD9CFAF
:100ED000E6FFDACFE6FF0BEC0CF0176E070EE15ED3
:100EE000175071EC0FF00009FCE1E66AEBEC0DF035
:100EF000E552B80EE66E1B0EE66E39EC0EF0E552CA
:100F0000E55271EC0FF00009FCE1400EE66EEBECEF
:100F10000DF0E552D9CFE6FFDACFE6FFACEC0EF0EC
:100F2000E552E552500EE15C02E2E16AE552E16E03
:100F3000E552E7CFD9FF1200D9CFE6FFE1CFD9FFC5
:100F4000020EE126060E086E096A84C00DF085C007
:100F50000EF0C2EC0AF006C0DEFF07C0DDFFDECFF8
:100F600014F0DDCF15F014C0F3FF15C0F4FF020E2E
:100F7000E15C02E2E16AE552E16EE552E7CFD9FFBA
:100F80001200DACFE4FFE2CFDAFFE9CFE4FFEACFE5
:100F9000E4FFF6CFE4FFF7CFE4FFF5CFE4FFF3CFB4
:100FA000E4FFF4CFE4FFFACFE4FF00EE00F0140E0C
:100FB000E80403E3EECFE4FFFBD700EE14F0070EE6
:100FC000E80403E3EECFE4FFFBD7E652F2A439D006
:100FD000F29AF2940001822B000E83230A0E8219EA
:100FE00023E1835121E1826B836B47EC10F0A4DF96
:100FF000F3CF8CF0F4CF8DF0F3CFE6FFF4CFE6FF24
:1010000050DFE552E55247DFCA0EE66EE00EE66EAF
:1010100039EC0FF0E552E5520001846B856B886B6B
:10102000896B8A6B8B6B0CD088C084F089C085F08B
:10103000CA0EE66EE00EE66E39EC0FF0E552E552B0
:10104000F28AF0A209D0F29AF0980001882B000EE3
:101050008923F092F28AF088E55200EE1AF0070E2A
:10106000E80403E3E5CFEDFFFBD700EE13F0140E29
:10107000E80403E3E5CFEDFFFBD7E5CFFAFFE5CFCB
:10108000F4FFE5CFF3FFE5CFF5FFE5CFF7FFE5CFC1
:10109000F6FFE5CFEAFFE5CFE9FFE5CFDAFF110084
:1010A00000018C6B8D6B0001AD6BAE6BB66BB76BDB
:1010B000B06BB16BB26BB36BF28AF294F088F092C2
:1010C000F184F18CD08EF28E939E9384819EE3DE28
:1010D000C0DE66DECA0EE66EE00EE66E39EC0FF09C
:1010E000E552E55293968CC0E6FF8DC0E6FFD9DE4F
:1010F000E552E5523C0E00018DAF02D0D89003D0EE
:101100008C5D000E8D5907E38D3506E28C51640825
:10111000000E8D5501E252DE92DDCC0EE66EBFDD93
:10112000E552440EE66EBBDDE5528186010E0001FC
:10113000B86FB96BB93504E2B8510808000EB9555B
:101140000AE3640EE66EDCEC0FF0E5520001B82B0A
:10115000000EB923EFD7819672DDCC0EE66E9FDDCF
:10116000E552BE0EE66E9BDDE552D2DD00018F6FCB
:10117000CFDD00018E6F8F390F0B0001AB6FAC6BB1
:1011800000018E39F00B0001A96FAA6BE850AB117A
:10119000AD6FAA51AC11AE6F00018FA118D00C6ACF
:1011A0000D6A800E0E6E3D0E0F6EB0C007F0B1C01E
:1011B00008F0B2C009F0B3C00AF0BFEC09F007C0F4
:1011C000B0F008C0B1F009C0B2F00AC0B3F000013D
:1011D0008FA317D00C6A0D6A0E6A3E0E0F6EB0C058
:1011E00007F0B1C008F0B2C009F0B3C00AF0BFEC1C
:1011F00009F007C0B0F008C0B1F009C0B2F00AC0F1
:10120000B3F000018FA518D00C6A0D6A800E0E6E27
:101210003E0E0F6EB0C007F0B1C008F0B2C009F0CA
:10122000B3C00AF0BFEC09F007C0B0F008C0B1F0DD
:1012300009C0B2F00AC0B3F000018FA717D00C6A42
:101240000D6A0E6A3F0E0F6EB0C007F0B1C008F015
:10125000B2C009F0B3C00AF0BFEC09F007C0B0F0AB
:1012600008C0B1F009C0B2F00AC0B3F00C6A0D6A50
:101270007A0E0E6E440E0F6EB0C007F0B1C008F0CB
:10128000B2C009F0B3C00AF055EC0AF0EFEC0AF076
:1012900008C0B6F009C0B7F000018E51E840E84040
:1012A000E8401F0B3F0B0001B46FB56BE850B51160
:1012B0000FE1AF51E66EE66AB6C0E6FFB7C0E6FFE3
:1012C000ADC0E6FFAEC0E6FFA60E146E1B0E0ED03C
:1012D000AF51E66EE66AB6C0E6FFB7C0E6FFADC046
:1012E000E6FFAEC0E6FF940E146E1B0E156E166A76
:1012F00014C0E6FFE66E16C0E6FF920EE66E000E24
:10130000E66E0BEC0CF0176E0B0EE15E175071ECF5
:101310000FF00009FCE1100EE66EEBEC0DF0E5526B
:1013200071EC0FF00009FCE16E0EE66EDCEC0FF0E4
:10133000E55271EC0FF00009FCE1920EE66E000E32
:10134000E66EACEC0EF0E552E55271EC0FF00009E0
:10135000FCE1800E146E1B0E156E166A14C0E6FFBB
:10136000E66E16C0E6FF920EE66E000EE66E0BEC21
:0C1370000CF0176E050EE15E1750B5D6AC
:04137C000F7E016A75
:1013800076EC0BF08EEC0BF001B61EEF0BF001A229
:101390000AD001AA03D001BE1EEF0BF001A42AEF70
:1013A0000BF027EF0BF001AA05D001AC2AEF0BF0F0
:1013B00027EF0BF001A00AD001A808D001BE04D08D
:1013C00001A402D033EF0BF037EF0BF0126A056A7D
:1013D0000F500A5C116E10E307C013F008C002F052
:1013E00009C003F00AC010F00CC007F00DC008F0EF
:1013F0000EC009F0013A09D00CC013F00DC002F084
:101400000EC003F00FC010F0116C019E01BC018EE4
:1014100010C004F001B066EF0BF01A0E116066EF19
:101420000BF0046A0A6A01A408D0076C081E091EA2
:101430000A1EE86A082209220A2201AC08D0136CAD
:10144000021E031E041EE86A022203220422066A08
:10145000115207E00A340932083207320632112EDF
:10146000F9D70750132608500222095003220A50C8
:10147000042206C012F0019E04AE0BD0126C131EA3
:10148000021E031E041EE86A132202220322042203
:10149000018E04A006D0D8800332023213321232F9
:1014A000102A10C004F03AEF0BF0016A76EC0BF052
:1014B0008EEC0BF001B61EEF0BF001A205D001B8C7
:1014C0001EEF0BF025EF0BF001AA05D001B01EEFC7
:1014D0000BF025EF0BF001B002D001A802D031EFE4
:1014E0000BF0056A0F500A24046EE86A05227E0E8E
:1014F000045EE86A055A126A136A026A036A0E50A9
:101500000902F4CF03F0F3CF02F00D500902F350BB
:101510001326F4500222000E03220E500802F3504C
:101520001326F4500222000E03220C500902F3503D
:101530001226F4501322000E022203220D5008023C
:10154000F3501226F4501322000E022203220E50F2
:101550000702F3501226F4501322000E0222032237
:101560000C500802F4501226000E1322022203220D
:101570000D500702F4501226000E132202220322FD
:101580003AEF0BF009C013F008C012F008500D023A
:10159000F4CF07F0F3CF06F009500E02F4CF09F0B4
:1015A000F3CF08F00D02F3500726F4500822E86A42
:1015B000092212500E02F3500726F4500822E86A5E
:1015C00009220EAEE8EF0AF01250085E1350095AD5
:1015D00013AE000C0D50085E0E50095A000C016A43
:1015E00076EC0BF001B6F9EF0AF001A20ED001B4CF
:1015F00005D07F0E096EFF0E086E1FD0800E096E9B
:10160000086A1BD0096A086A18D001B0FBD78F0E90
:101610000A60EDD77E0E0A64F5D78E0E0A5C05E0EF
:10162000D890093208320A2AF8D701A406D0086CEB
:10163000091EE86A092209AEE5D712007F0E0A6E7C
:10164000FF0E096E086E076E12007F0E01BEFF0EC0
:101650000A6E02D07F0E0A6E800E096E086A076A53
:10166000F3D701AE04D0800E0A6E096AF7D70A6A72
:10167000096AF4D70350021013101210F8E005BEE7
:10168000F0D703BE0CD004500510EBE0D890123612
:101690001336023603360406D8A00506F2D70550E5
:1016A000D4E10428D2E012AE11D07F0E121402E170
:1016B00013A00CD0132AE86A0222032207E3D88081
:1016C000033202321332042A0428BFE00450C9E076
:1016D00013C007F002C008F00334096E04300A6E2C
:1016E00009320A9E01BE0A8E24EF0BF009360A3633
:1016F00002E30184017E06E101800A6A096A086A40
:10170000076A12000A2803E0D88009321200D89034
:10171000093202E101821200018612000E360F36F4
:1017200002E3018C017E06E101880F6A0E6A0D6AF0
:101730000C6A12000F2803E0D8800E321200D890F5
:081740000E32EAE1018A1200F9
:08174800D9CFE6FFE1CFD9FF84
:101750000F0E831695169594959295908C948C9275
:101760008C9023EC07F0300EE66E86EC0EF0E5521E
:10177000050EE66E8CEC0FF0E552300EE66E86EC50
:101780000EF0E552010EE66E8CEC0FF0E552320ED3
:10179000E66E86EC0EF0E55271EC0FF00009FCE10C
:1017A00071EC0FF00009FCE1FE0EDBCFE6FF86ECEA
:1017B0000EF0E55271EC0FF00009FCE1080EE66E48
:1017C00086EC0EF0E55271EC0FF00009FCE10F0E13
:1017D000E66E86EC0EF0E55271EC0FF00009FCE1CC
:1017E000010EE66E86EC0EF0E55271EC0FF000098A
:1017F000FCE1040EE66E86EC0EF0E55271EC0FF0A3
:101800000009FCE1800EE66EEBEC0DF0E552E552CE
:06181000E7CFD9FF120032
:0A181600D9CFE6FFDACFE6FFE1CFFD
:10182000D9FFE2CFDAFFE652E652E652E652D9504D
:10183000F90F146EFF0EDA20156E020E14C0DBFFD6
:10184000030E15C0DBFF020EDBCFE6FF030EDBCF7E
:10185000E6FFF90EDBCFE6FFFA0EDBCFE6FFFB0E6D
:10186000DBCFE6FFD950FC0FE66EFF0EDA20E66E06
:1018700024EC00F0146E070EE15C02E2E16AE5522E
:10188000E16E1450F3CFDEFFF4CFDDFFFC0EDBCFB3
:10189000E9FFFD0EDBCFEAFFEF6ADECF14F0DDCF0C
:1018A00015F014C0F3FF15C0F4FF040EE15C02E272
:1018B000E16AE552E16EE552E5CFDAFFE7CFD9FF05
:0218C000120014
:0E18C2000E0EF66E000EF76E000EF86E0001B0
:1018D0000900F550BF6F0900F550C06F03E1BF6705
:1018E00001D03DD00900F550BA6F0900F550BB6F2B
:1018F0000900F550BC6F09000900F550E96E0900B8
:10190000F550EA6E090009000900F550BD6F0900A5
:10191000F550BE6F09000900F6CFC1F0F7CFC2F055
:10192000F8CFC3F0BAC0F6FFBBC0F7FFBCC0F8FFEA
:101930000001BD5302E1BE5307E00900F550EE6E11
:10194000BD07F8E2BE07F9D7C1C0F6FFC2C0F7FF76
:10195000C3C0F8FF0001BF07000EC05BBFD7120075
:10196000D9CFE6FFDACFE6FFE1CFD9FFE2CFDAFF4A
:10197000FB0EDBCF14F0FC0EDBCF15F00001800E68
:1019800015141AE1FB0EDBCFE9FFFC0EDBCFEAFFFB
:10199000EECFF3FFEDCFF4FFEE2A000EEF22F3CFF0
:1019A000E9FFF4CFEAFFFD0EDBCFEFFFEF50156A42
:1019B000F36E15C0F4FF10D0FB0EDB50FE0806E1FD
:1019C000FD0EDBCFE6FF0AEC10F005D0FD0EDBCFFD
:1019D000E6FF03EC00F0E552E552E5CFDAFFE7CF92
:0419E000D9FF120019
:0C19E40006500B02F3CF02F0F4CF03F02A
:1019F0000C02F3500326000EF420046E06500D0274
:101A0000F3500426000EF420056E06500E02F3502B
:101A1000052607500B02F3500326F4500422000E53
:101A2000052207500C02F3500426F45005220750FB
:101A30000D02F350052608500B02F3500426F45013
:101A4000052208500C02F350052609500B02F350F2
:041A50000526120055
:0C1A5400D9CFE6FFE1CFD9FF030EE12659
:101A6000F8CF01F0F6CF02F0FE0EDB80DB82DB84E4
:101A7000DB86DB88DB8AFD0EDB84DB86DB88DB8AAA
:101A8000DB8CDB8EFE0EDBCFE6FFC00EBD10E55219
:101A9000E714BD6EFD0EDBCFE6FF0F0EBD10E55265
:101AA000E714BD6E01C0F8FF02C0F6FF030EE15C53
:101AB00002E2E16AE552E16EE552E7CFD9FF12009A
:101AC000FE0EE3CFE9FFFF0EE3CFEAFFF36AF46A0D
:101AD000EE5203E0F34AF42AFBD71200FF0EE3CFE5
:101AE000F8FFE552FF0EE3CFF7FFE552FF0EE3CF1D
:101AF000F6FFE552E66AE66AE66A0900F55209E091
:101B0000FD0EE32A05E1FE0EE32A02E1FF0EE32AC1
:101B1000F4D7FD0EE3CF07F0FE0EE3CF08F0FF0E83
:061B2000E3CF09F0120002
:0A1B2600D9CFE6FFE1CFD9FF020E90
:101B3000E126FD0EDBCF14F0FE0EDBCF15F0060E16
:101B4000D89014361536E804FBE114C0DEFF15C04A
:101B5000DDFF010EDB50BE6EDF50E840E8403F0B7A
:101B6000300B146ECF0EBD141410BD6E020EE15C6E
:101B700002E2E16AE552E16EE552E7CFD9FF1200D9
:101B80002020202020202020202020202020202055
:101B90002020200054656D703A202D25642E2530BC
:101BA00033642563430054656D703A202B25642E01
:101BB00025303364256343004865617274205261A7
:101BC00074653A200025642062706D20202020205A
:051BD000202020200090
:0A1BD600D9CFE6FFE1CFD9FF0F0ED3
:101BE00095168316FE0EDB508009F00B83128C9441
:101BF0008C920FEC07F08C800FEC07F08C900F0E9E
:101C00008316FE0EDB38F00BF00B83120FEC07F09F
:101C10008C800FEC07F08C90F00E9512E552E7CF18
:041C2000D9FF1200D6
:0C1C2400D9CFE6FFE1CFD9FF0F0E9516D7
:101C30008316FE0EDB504009F00B83128C948C92BD
:101C40000FEC07F08C800FEC07F08C900F0E8316D2
:101C5000FE0EDB38F00BF00B83120FEC07F08C80DC
:101C60000FEC07F08C90F00E9512E552E7CFD9FFFC
:021C7000120060
:0E1C7200D9CFE6FFE1CFD9FFFD0EDBCFF6FFA5
:101C8000FE0EDBCFF7FF0800F55016E071EC0FF009
:101C90000009FCE1FD0EDBCFF6FFFE0EDBCFF7FF08
:101CA0000800F550E66E60EC0EF0E552FD0EDB2A02
:101CB000FE0EE3E3DB2AE1D7E552E7CFD9FF1200BE
:101CC000D9CFE6FFE1CFD9FF0F0E95168316FE0E92
:101CD000DB50F00B83128C828C940FEC07F08C801D
:101CE0000FEC07F08C900F0E8316FE0EDB38F00B16
:101CF000F00B83120FEC07F08C800FEC07F08C9048
:0C1D0000F00E9512E552E7CFD9FF12005B
:041D0C00D9CFE6FF46
:101D1000E1CFD9FF0F0E95168316FE0EDB50F00BA8
:101D200083128C948C920FEC07F08C800FEC07F0F0
:101D30008C900F0E8316FE0EDB38F00BF00B831227
:101D40000FEC07F08C800FEC07F08C90F00E9512E2
:081D5000E552E7CFD9FF1200B4
:081D5800D9CFE6FFE1CFD9FF6E
:101D6000FD0EDBCFE9FFFE0EDBCFEAFFEF5015E003
:101D700071EC0FF00009FCE1FD0EDBCFE9FFFE0E78
:101D8000DBCFEAFFEF50E66E60EC0EF0E552FD0EA1
:101D9000DB2AFE0EE5E3DB2AE3D7E552E7CFD9FFE6
:021DA00012002F
:0E1DA200056A046A036A026A200EE76ED89092
:101DB0000636073608360936023603360436053647
:101DC0000B50025C0C5003580D5004580E5005582F
:101DD00009E30B50025E0C50035A0D50045A0E508A
:0A1DE000055A062AE72EE4D7120088
:061DEA00D9CFE6FFE1CFB6
:101DF000D9FFE6528C848C820FEC07F08C800FECBC
:101E000007F0F00E8314DF6E8C900FEC07F08C80DF
:101E10000FEC07F083380F0B0F0BDF128C908C92B6
:0E1E20008C94DF50E552E552E7CFD9FF120057
:021E2E00D9CF0A
:101E3000E6FFE1CFD9FFE6528C848C920FEC07F0DD
:101E40008C800FEC07F0F00E8314DF6E8C900FEC9B
:101E500007F08C800FEC07F083380F0B0F0BDF12AD
:101E60008C908C947F0EDF14E552E552E7CFD9FFBA
:021E700012005E
:0E1E7200D9CFE6FFDACFE6FFE1CFD9FFE2CF0E
:101E8000DAFFE652E652FC0EDBCFDEFFDBCFDDFFF2
:101E9000010EDB50D76EDF50D66EE552E552E552AB
:0A1EA000E5CFDAFFE7CFD9FF12000B
:061EAA00D9CFE6FFDACFFC
:101EB000E6FFE1CFD9FFE2CFDAFFFD0EDB507F0B6B
:101EC000D56ED76AD66AF294FD0EDBAE02D0F28AE6
:101ED00001D0F29AD58EE552E5CFDAFFE7CFD9FFF0
:021EE0001200EE
:0E1EE2008C848C920FEC07F08C800FEC07F0D4
:101EF00083AE09D08C900FEC07F08C800FEC07F0CC
:101F00008C908C94010C8C900FEC07F08C800FEC73
:081F100007F08C908C94000C8A
:081F1800FF0EE3501C6EEF0EFA
:101F200001D0F30EE76EE72E93EF0FF00C0E1B6E51
:101F3000E76AE72E99EF0FF01B2E98EF0FF01C2E9B
:061F400091EF0FF012000A
:0A1F4600D9CFE6FFE1CFD9FFFE0E70
:101F5000DB50FB0BCA6ECC6A9E92FE0EDBAE02D04B
:101F60009D8201D09D92CA84E552E7CFD9FF12002D
:101F7000F36AF46AFF0EE124E96EFF0EE220EA6ED6
:101F8000ED6607D02F0EEF6404D03A0EEF6001D05B
:041F9000F32A12001E
:0C1F9400D9CFE6FFE1CFD9FF0C0EBD1243
:101FA0009494CA94FE0EDB50CB6ECA84E552E7CF00
:081FB000D9FF12009494120005
:081FB800FF0EE3501C6E480E01
:101FC00001D04C0EE76EE72EFED7E76AE72EFED76C
:081FD0001C2EF7D700001200DF
:081FD800000EF36E00EE00F0B4
:101FE000060E01D81200EA6002D0EE6AFCD7F35068
:081FF000E9601200EE6AFCD763
:081FF80015EE00F025EE00F0EB
:10200000F86A019C61EC0CF04CEC10F050EC08F01C
:04201000FBD71200E8
:0C201400FF0EE350ACBA04D0AF6AAB8EF4
:10202000AC8A949CACA2FED7AD6EF36EF46A12003B
:10203000D9CFE6FFE1CFD9FFE652CC50DF6EDF50BB
:0A204000E552E552E7CFD9FF120088
:06204A00FF0EE350E84E1A
:102050001200000000D000D000D0E82EFAD7120005
:10206000D9CFE6FFE1CFD9FFFE0EDB50CC6EE552B3
:06207000E7CFD9FF1200CA
:0A2076003031323334353637383953
:072080006162636465660004
:06208800CA949D921200B3
:02208E00D59EDD
:04209000F29A1200AE
:04209400BD6A12000F
:02209800120034
:06209A00EDEDED00000079
:0E20A000000000DF0000000000000000000053
:020000040030CA
:0100010022DC
:010003000EEE
:010006008178
:00000001FF
